{
  "contractName": "Initializable",
  "abi": [
    {
      "constant": true,
      "inputs": [],
      "name": "initialized",
      "outputs": [
        {
          "internalType": "bool",
          "name": "",
          "type": "bool"
        }
      ],
      "payable": false,
      "stateMutability": "view",
      "type": "function"
    }
  ],
  "bytecode": "0x6080604052348015600f57600080fd5b5060948061001e6000396000f3fe6080604052348015600f57600080fd5b506004361060285760003560e01c8063158ef93e14602d575b600080fd5b6033604d565b604051808215151515815260200191505060405180910390f35b6000809054906101000a900460ff168156fea265627a7a723158208d401ef1810d9a5019a2d0d88a6111b1ae6fb97abfb66497f69dd28d4e1c3f6d64736f6c63430005100032",
  "source": "pragma solidity ^0.5.8;\n\n\ncontract Initializable {\n  bool public initialized;\n\n  modifier initializer() {\n    require(!initialized);\n    initialized = true;\n    _;\n  }\n}\n",
  "sourcePath": "/Users/mac/Projects/Segun/EM/celodapp/contracts/Initializable.sol",
  "compiler": {
    "name": "solc",
    "version": "0.5.16+commit.9c3226ce.Emscripten.clang"
  },
  "schemaVersion": "3.3.4",
  "updatedAt": "2021-04-14T15:32:53.387Z",
  "devdoc": {
    "methods": {}
  },
  "userdoc": {
    "methods": {}
  }
}