{
  "contractName": "MockStableToken",
  "abi": [
    {
      "constant": true,
      "inputs": [],
      "name": "_needsRebase",
      "outputs": [
        {
          "internalType": "bool",
          "name": "",
          "type": "bool"
        }
      ],
      "payable": false,
      "stateMutability": "view",
      "type": "function"
    },
    {
      "constant": true,
      "inputs": [],
      "name": "_targetTotalSupply",
      "outputs": [
        {
          "internalType": "uint256",
          "name": "",
          "type": "uint256"
        }
      ],
      "payable": false,
      "stateMutability": "view",
      "type": "function"
    },
    {
      "constant": true,
      "inputs": [],
      "name": "_totalSupply",
      "outputs": [
        {
          "internalType": "uint256",
          "name": "",
          "type": "uint256"
        }
      ],
      "payable": false,
      "stateMutability": "view",
      "type": "function"
    },
    {
      "constant": true,
      "inputs": [],
      "name": "decimals",
      "outputs": [
        {
          "internalType": "uint8",
          "name": "",
          "type": "uint8"
        }
      ],
      "payable": false,
      "stateMutability": "view",
      "type": "function"
    },
    {
      "constant": false,
      "inputs": [],
      "name": "setNeedsRebase",
      "outputs": [],
      "payable": false,
      "stateMutability": "nonpayable",
      "type": "function"
    },
    {
      "constant": false,
      "inputs": [
        {
          "internalType": "uint256",
          "name": "value",
          "type": "uint256"
        }
      ],
      "name": "setTotalSupply",
      "outputs": [],
      "payable": false,
      "stateMutability": "nonpayable",
      "type": "function"
    },
    {
      "constant": false,
      "inputs": [
        {
          "internalType": "uint256",
          "name": "value",
          "type": "uint256"
        }
      ],
      "name": "setTargetTotalSupply",
      "outputs": [],
      "payable": false,
      "stateMutability": "nonpayable",
      "type": "function"
    },
    {
      "constant": true,
      "inputs": [
        {
          "internalType": "address",
          "name": "",
          "type": "address"
        },
        {
          "internalType": "uint256",
          "name": "",
          "type": "uint256"
        }
      ],
      "name": "mint",
      "outputs": [
        {
          "internalType": "bool",
          "name": "",
          "type": "bool"
        }
      ],
      "payable": false,
      "stateMutability": "pure",
      "type": "function"
    },
    {
      "constant": true,
      "inputs": [
        {
          "internalType": "uint256",
          "name": "",
          "type": "uint256"
        }
      ],
      "name": "burn",
      "outputs": [
        {
          "internalType": "bool",
          "name": "",
          "type": "bool"
        }
      ],
      "payable": false,
      "stateMutability": "pure",
      "type": "function"
    },
    {
      "constant": true,
      "inputs": [],
      "name": "needsRebase",
      "outputs": [
        {
          "internalType": "bool",
          "name": "",
          "type": "bool"
        }
      ],
      "payable": false,
      "stateMutability": "view",
      "type": "function"
    },
    {
      "constant": true,
      "inputs": [],
      "name": "resetLastRebase",
      "outputs": [],
      "payable": false,
      "stateMutability": "pure",
      "type": "function"
    },
    {
      "constant": true,
      "inputs": [],
      "name": "totalSupply",
      "outputs": [
        {
          "internalType": "uint256",
          "name": "",
          "type": "uint256"
        }
      ],
      "payable": false,
      "stateMutability": "view",
      "type": "function"
    },
    {
      "constant": true,
      "inputs": [],
      "name": "targetTotalSupply",
      "outputs": [
        {
          "internalType": "uint256",
          "name": "",
          "type": "uint256"
        }
      ],
      "payable": false,
      "stateMutability": "view",
      "type": "function"
    },
    {
      "constant": true,
      "inputs": [
        {
          "internalType": "address",
          "name": "",
          "type": "address"
        },
        {
          "internalType": "uint256",
          "name": "",
          "type": "uint256"
        }
      ],
      "name": "transfer",
      "outputs": [
        {
          "internalType": "bool",
          "name": "",
          "type": "bool"
        }
      ],
      "payable": false,
      "stateMutability": "pure",
      "type": "function"
    },
    {
      "constant": true,
      "inputs": [
        {
          "internalType": "address",
          "name": "",
          "type": "address"
        },
        {
          "internalType": "address",
          "name": "",
          "type": "address"
        },
        {
          "internalType": "uint256",
          "name": "",
          "type": "uint256"
        }
      ],
      "name": "transferFrom",
      "outputs": [
        {
          "internalType": "bool",
          "name": "",
          "type": "bool"
        }
      ],
      "payable": false,
      "stateMutability": "pure",
      "type": "function"
    }
  ],
  "bytecode": "0x608060405260126000806101000a81548160ff021916908360ff16021790555034801561002b57600080fd5b506104d58061003b6000396000f3fe608060405234801561001057600080fd5b50600436106100f55760003560e01c806341ea64751161009757806398e10a011161006657806398e10a0114610302578063a9059cbb14610320578063b210e2c114610386578063f7ea7a3d146103b4576100f5565b806341ea64751461027257806342966c681461027c5780637e3e0461146102c25780639095d94f146102e0576100f5565b806325a4ab4b116100d357806325a4ab4b146101a8578063313ce567146101ca5780633eaaf86b146101ee57806340c10f191461020c576100f5565b806314719810146100fa57806318160ddd1461010457806323b872dd14610122575b600080fd5b6101026103e2565b005b61010c6103e4565b6040518082815260200191505060405180910390f35b61018e6004803603606081101561013857600080fd5b81019080803573ffffffffffffffffffffffffffffffffffffffff169060200190929190803573ffffffffffffffffffffffffffffffffffffffff169060200190929190803590602001909291905050506103ee565b604051808215151515815260200191505060405180910390f35b6101b06103fb565b604051808215151515815260200191505060405180910390f35b6101d261040e565b604051808260ff1660ff16815260200191505060405180910390f35b6101f6610420565b6040518082815260200191505060405180910390f35b6102586004803603604081101561022257600080fd5b81019080803573ffffffffffffffffffffffffffffffffffffffff16906020019092919080359060200190929190505050610426565b604051808215151515815260200191505060405180910390f35b61027a610432565b005b6102a86004803603602081101561029257600080fd5b810190808035906020019092919050505061044f565b604051808215151515815260200191505060405180910390f35b6102ca61045a565b6040518082815260200191505060405180910390f35b6102e8610464565b604051808215151515815260200191505060405180910390f35b61030a61047a565b6040518082815260200191505060405180910390f35b61036c6004803603604081101561033657600080fd5b81019080803573ffffffffffffffffffffffffffffffffffffffff16906020019092919080359060200190929190505050610480565b604051808215151515815260200191505060405180910390f35b6103b26004803603602081101561039c57600080fd5b810190808035906020019092919050505061048c565b005b6103e0600480360360208110156103ca57600080fd5b8101908080359060200190929190505050610496565b005b565b6000600154905090565b6000600190509392505050565b600060019054906101000a900460ff1681565b6000809054906101000a900460ff1681565b60015481565b60006001905092915050565b6001600060016101000a81548160ff021916908315150217905550565b600060019050919050565b6000600254905090565b60008060019054906101000a900460ff16905090565b60025481565b60006001905092915050565b8060028190555050565b806001819055505056fea265627a7a72315820f6fbe99f578eb4362d6eaefa3f7785c0e3ef1f448d768a46234a9026befc2aeb64736f6c63430005100032",
  "source": "pragma solidity ^0.5.8;\n// solhint-disable no-unused-vars\n\n\n/**\n * @title A mock StableToken for testing.\n */\ncontract MockStableToken {\n\n  uint8 public decimals = 18;\n  bool public _needsRebase;\n  uint256 public _totalSupply;\n  uint256 public _targetTotalSupply;\n\n  function setNeedsRebase() external {\n    _needsRebase = true;\n  }\n\n  function setTotalSupply(uint256 value) external {\n    _totalSupply = value;\n  }\n\n  function setTargetTotalSupply(uint256 value) external {\n    _targetTotalSupply = value;\n  }\n\n  function mint(address, uint256) external pure returns (bool) {\n    return true;\n  }\n\n  function burn(uint256) external pure returns (bool) {\n    return true;\n  }\n\n  function needsRebase() external view returns (bool) {\n    return _needsRebase;\n  }\n\n  // solhint-disable-next-line no-empty-blocks\n  function resetLastRebase() external pure {}\n\n  function totalSupply() external view returns (uint256) {\n    return _totalSupply;\n  }\n\n  function targetTotalSupply() external view returns (uint256) {\n    return _targetTotalSupply;\n  }\n\n  function transfer(address, uint256) external pure returns (bool) {\n    return true;\n  }\n\n  function transferFrom(address, address, uint256) external pure returns (bool) {\n    return true;\n  }\n}\n",
  "sourcePath": "/Users/mac/Projects/Segun/EM/celodapp/contracts/MockStableToken.sol",
  "compiler": {
    "name": "solc",
    "version": "0.5.16+commit.9c3226ce.Emscripten.clang"
  },
  "schemaVersion": "3.3.4",
  "updatedAt": "2021-04-14T15:32:53.389Z",
  "devdoc": {
    "methods": {},
    "title": "A mock StableToken for testing."
  },
  "userdoc": {
    "methods": {}
  }
}